{
  "address": "0x5FbDB2315678afecb367f032d93F642f64180aa3",
  "abi": [
    {
      "inputs": [],
      "stateMutability": "nonpayable",
      "type": "constructor"
    },
    {
      "inputs": [],
      "name": "admin",
      "outputs": [
        {
          "internalType": "address",
          "name": "",
          "type": "address"
        }
      ],
      "stateMutability": "view",
      "type": "function"
    },
    {
      "inputs": [
        {
          "internalType": "contract IERC20",
          "name": "_token",
          "type": "address"
        }
      ],
      "name": "claimFees",
      "outputs": [],
      "stateMutability": "nonpayable",
      "type": "function"
    },
    {
      "inputs": [
        {
          "internalType": "address",
          "name": "",
          "type": "address"
        }
      ],
      "name": "claimableFees",
      "outputs": [
        {
          "internalType": "uint256",
          "name": "",
          "type": "uint256"
        }
      ],
      "stateMutability": "view",
      "type": "function"
    },
    {
      "inputs": [
        {
          "internalType": "uint256",
          "name": "_swapId",
          "type": "uint256"
        },
        {
          "internalType": "uint256",
          "name": "_outTokens",
          "type": "uint256"
        }
      ],
      "name": "commitToSwap",
      "outputs": [
        {
          "internalType": "uint256",
          "name": "",
          "type": "uint256"
        }
      ],
      "stateMutability": "nonpayable",
      "type": "function"
    },
    {
      "inputs": [
        {
          "internalType": "contract IERC20",
          "name": "_inToken",
          "type": "address"
        },
        {
          "internalType": "contract IERC20",
          "name": "_outToken",
          "type": "address"
        },
        {
          "internalType": "uint256",
          "name": "_inTokens",
          "type": "uint256"
        },
        {
          "internalType": "uint256",
          "name": "_outTokens",
          "type": "uint256"
        },
        {
          "internalType": "address",
          "name": "_tokenOutParty",
          "type": "address"
        }
      ],
      "name": "createNewSwap",
      "outputs": [
        {
          "internalType": "uint256",
          "name": "",
          "type": "uint256"
        }
      ],
      "stateMutability": "nonpayable",
      "type": "function"
    },
    {
      "inputs": [],
      "name": "getActiveSwaps",
      "outputs": [
        {
          "internalType": "uint256[]",
          "name": "",
          "type": "uint256[]"
        }
      ],
      "stateMutability": "view",
      "type": "function"
    },
    {
      "inputs": [],
      "name": "swapId",
      "outputs": [
        {
          "internalType": "uint256",
          "name": "_value",
          "type": "uint256"
        }
      ],
      "stateMutability": "view",
      "type": "function"
    },
    {
      "inputs": [
        {
          "internalType": "uint256",
          "name": "",
          "type": "uint256"
        }
      ],
      "name": "swaps",
      "outputs": [
        {
          "internalType": "contract IERC20",
          "name": "inToken",
          "type": "address"
        },
        {
          "internalType": "contract IERC20",
          "name": "outToken",
          "type": "address"
        },
        {
          "internalType": "uint256",
          "name": "tokensIn",
          "type": "uint256"
        },
        {
          "internalType": "uint256",
          "name": "tokensOut",
          "type": "uint256"
        },
        {
          "internalType": "address",
          "name": "inTokenParty",
          "type": "address"
        },
        {
          "internalType": "address",
          "name": "outTokenParty",
          "type": "address"
        },
        {
          "internalType": "bool",
          "name": "status",
          "type": "bool"
        }
      ],
      "stateMutability": "view",
      "type": "function"
    }
  ],
  "transactionHash": "0x288c9179dfd933317b2a43ddb880121230c93e6490000c95cba9d5e7d3077685",
  "args": [],
  "solcInputHash": "f937e73a549d10a9697f96b184861470",
  "bytecode": "0x608060405234801561001057600080fd5b506001600055600680546001600160a01b03191633179055611212806100376000396000f3fe608060405234801561001057600080fd5b50600436106100885760003560e01c8063cfd53d061161005b578063cfd53d06146100fb578063f09c582914610110578063f54738ef146101e1578063f851a440146101eb57600080fd5b806315a0ea6a1461008d5780635ec169a0146100a25780637e0b2492146100c8578063b82491f1146100e8575b600080fd5b6100a061009b366004610ef2565b610230565b005b6100b56100b0366004610f0f565b61026c565b6040519081526020015b60405180910390f35b6100b56100d6366004610ef2565b60056020526000908152604090205481565b6100b56100f6366004610f31565b610692565b6101036108b9565b6040516100bf9190610f90565b61018e61011e366004610fd4565b600460208190526000918252604090912080546001820154600283015460038401549484015460059094015473ffffffffffffffffffffffffffffffffffffffff938416959284169491939182169181169074010000000000000000000000000000000000000000900460ff1687565b6040805173ffffffffffffffffffffffffffffffffffffffff9889168152968816602088015286019490945260608501929092528416608084015290921660a082015290151560c082015260e0016100bf565b6001546100b59081565b60065461020b9073ffffffffffffffffffffffffffffffffffffffff1681565b60405173ffffffffffffffffffffffffffffffffffffffff90911681526020016100bf565b60065473ffffffffffffffffffffffffffffffffffffffff828116600081815260056020526040902054610269939192909116906108ca565b50565b6000600260005414156102e0576040517f08c379a000000000000000000000000000000000000000000000000000000000815260206004820152601f60248201527f5265656e7472616e637947756172643a207265656e7472616e742063616c6c0060448201526064015b60405180910390fd5b6002600081815584815260046020818152604092839020835160e081018552815473ffffffffffffffffffffffffffffffffffffffff90811682526001830154811693820193909352948101549385019390935260038301546060850152908201548116608084015260059091015490811660a083015274010000000000000000000000000000000000000000900460ff16151560c082018190526103e1576040517f08c379a000000000000000000000000000000000000000000000000000000000815260206004820152600d60248201527f535741505f494e4143544956450000000000000000000000000000000000000060448201526064016102d7565b60a081015173ffffffffffffffffffffffffffffffffffffffff16331480610421575060a081015173ffffffffffffffffffffffffffffffffffffffff16155b610487576040517f08c379a000000000000000000000000000000000000000000000000000000000815260206004820152600c60248201527f554e415554484f52495a4544000000000000000000000000000000000000000060448201526064016102d7565b80606001518310156104f5576040517f08c379a000000000000000000000000000000000000000000000000000000000815260206004820152601060248201527f554e4d4154434845445f414d4f554e540000000000000000000000000000000060448201526064016102d7565b602081015161051c9073ffffffffffffffffffffffffffffffffffffffff163330866109a3565b60006103e861052c85600561101c565b6105369190611059565b90508060056000846020015173ffffffffffffffffffffffffffffffffffffffff1673ffffffffffffffffffffffffffffffffffffffff168152602001908152602001600020600082825461058b9190611094565b90915550506000858152600460208190526040822080547fffffffffffffffffffffffff000000000000000000000000000000000000000090811682556001820180548216905560028083018590556003830194909455918101805490921690915560050180547fffffffffffffffffffffff0000000000000000000000000000000000000000001690556106209086610a07565b5060808201516106569061063483876110ac565b602085015173ffffffffffffffffffffffffffffffffffffffff1691906108ca565b604082015182516106819173ffffffffffffffffffffffffffffffffffffffff9091169033906108ca565b506040015160016000559392505050565b60006106b673ffffffffffffffffffffffffffffffffffffffff87163330876109a3565b60006103e86106c686600561101c565b6106d09190611059565b73ffffffffffffffffffffffffffffffffffffffff881660009081526005602052604081208054929350839290919061070a908490611094565b90915550506040805160e08101825273ffffffffffffffffffffffffffffffffffffffff808a16825288166020820152600091810161074984896110ac565b81526020810187905233604082015273ffffffffffffffffffffffffffffffffffffffff861660608201526000608090910152905061079261078a60015490565b600290610a1c565b5080600460006107a160015490565b815260208082019290925260409081016000208351815473ffffffffffffffffffffffffffffffffffffffff9182167fffffffffffffffffffffffff0000000000000000000000000000000000000000918216178355938501516001808401805492841692871692909217909155928501516002830155606085015160038301556080850151600483018054918316919095161790935560a08401516005909101805460c090950151151574010000000000000000000000000000000000000000027fffffffffffffffffffffff000000000000000000000000000000000000000000909516919093161792909217905561089f9080546001019055565b600180546108ad91906110ac565b98975050505050505050565b60606108c56002610a28565b905090565b60405173ffffffffffffffffffffffffffffffffffffffff831660248201526044810182905261099e9084907fa9059cbb00000000000000000000000000000000000000000000000000000000906064015b604080517fffffffffffffffffffffffffffffffffffffffffffffffffffffffffffffffe08184030181529190526020810180517bffffffffffffffffffffffffffffffffffffffffffffffffffffffff167fffffffff0000000000000000000000000000000000000000000000000000000090931692909217909152610a3c565b505050565b60405173ffffffffffffffffffffffffffffffffffffffff80851660248301528316604482015260648101829052610a019085907f23b872dd000000000000000000000000000000000000000000000000000000009060840161091c565b50505050565b6000610a138383610b48565b90505b92915050565b6000610a138383610c3b565b60606000610a3583610c8a565b9392505050565b6000610a9e826040518060400160405280602081526020017f5361666545524332303a206c6f772d6c6576656c2063616c6c206661696c65648152508573ffffffffffffffffffffffffffffffffffffffff16610ce69092919063ffffffff16565b80519091501561099e5780806020019051810190610abc91906110c3565b61099e576040517f08c379a000000000000000000000000000000000000000000000000000000000815260206004820152602a60248201527f5361666545524332303a204552433230206f7065726174696f6e20646964206e60448201527f6f7420737563636565640000000000000000000000000000000000000000000060648201526084016102d7565b60008181526001830160205260408120548015610c31576000610b6c6001836110ac565b8554909150600090610b80906001906110ac565b9050818114610be5576000866000018281548110610ba057610ba06110e5565b9060005260206000200154905080876000018481548110610bc357610bc36110e5565b6000918252602080832090910192909255918252600188019052604090208390555b8554869080610bf657610bf6611114565b600190038181906000526020600020016000905590558560010160008681526020019081526020016000206000905560019350505050610a16565b6000915050610a16565b6000818152600183016020526040812054610c8257508154600181810184556000848152602080822090930184905584548482528286019093526040902091909155610a16565b506000610a16565b606081600001805480602002602001604051908101604052809291908181526020018280548015610cda57602002820191906000526020600020905b815481526020019060010190808311610cc6575b50505050509050919050565b6060610cf58484600085610cfd565b949350505050565b606082471015610d8f576040517f08c379a000000000000000000000000000000000000000000000000000000000815260206004820152602660248201527f416464726573733a20696e73756666696369656e742062616c616e636520666f60448201527f722063616c6c000000000000000000000000000000000000000000000000000060648201526084016102d7565b843b610df7576040517f08c379a000000000000000000000000000000000000000000000000000000000815260206004820152601d60248201527f416464726573733a2063616c6c20746f206e6f6e2d636f6e747261637400000060448201526064016102d7565b6000808673ffffffffffffffffffffffffffffffffffffffff168587604051610e20919061116f565b60006040518083038185875af1925050503d8060008114610e5d576040519150601f19603f3d011682016040523d82523d6000602084013e610e62565b606091505b5091509150610e72828286610e7d565b979650505050505050565b60608315610e8c575081610a35565b825115610e9c5782518084602001fd5b816040517f08c379a00000000000000000000000000000000000000000000000000000000081526004016102d7919061118b565b73ffffffffffffffffffffffffffffffffffffffff8116811461026957600080fd5b600060208284031215610f0457600080fd5b8135610a3581610ed0565b60008060408385031215610f2257600080fd5b50508035926020909101359150565b600080600080600060a08688031215610f4957600080fd5b8535610f5481610ed0565b94506020860135610f6481610ed0565b935060408601359250606086013591506080860135610f8281610ed0565b809150509295509295909350565b6020808252825182820181905260009190848201906040850190845b81811015610fc857835183529284019291840191600101610fac565b50909695505050505050565b600060208284031215610fe657600080fd5b5035919050565b7f4e487b7100000000000000000000000000000000000000000000000000000000600052601160045260246000fd5b6000817fffffffffffffffffffffffffffffffffffffffffffffffffffffffffffffffff048311821515161561105457611054610fed565b500290565b60008261108f577f4e487b7100000000000000000000000000000000000000000000000000000000600052601260045260246000fd5b500490565b600082198211156110a7576110a7610fed565b500190565b6000828210156110be576110be610fed565b500390565b6000602082840312156110d557600080fd5b81518015158114610a3557600080fd5b7f4e487b7100000000000000000000000000000000000000000000000000000000600052603260045260246000fd5b7f4e487b7100000000000000000000000000000000000000000000000000000000600052603160045260246000fd5b60005b8381101561115e578181015183820152602001611146565b83811115610a015750506000910152565b60008251611181818460208701611143565b9190910192915050565b60208152600082518060208401526111aa816040850160208701611143565b601f017fffffffffffffffffffffffffffffffffffffffffffffffffffffffffffffffe016919091016040019291505056fea26469706673582212203d53c2b76ab5e180a0d74e03feec49d808a76f242dd70aa5349b589fd85fb9d364736f6c63430008090033",
  "devdoc": {
    "kind": "dev",
    "methods": {},
    "version": 1
  },
  "userdoc": {
    "kind": "user",
    "methods": {},
    "version": 1
  },
  "storageLayout": {
    "storage": [
      {
        "astId": 10,
        "contract": "contracts/MoonSwapV1.sol:MoonSwap",
        "label": "_status",
        "offset": 0,
        "slot": "0",
        "type": "t_uint256"
      },
      {
        "astId": 1967,
        "contract": "contracts/MoonSwapV1.sol:MoonSwap",
        "label": "swapId",
        "offset": 0,
        "slot": "1",
        "type": "t_struct(Counter)1237_storage"
      },
      {
        "astId": 1970,
        "contract": "contracts/MoonSwapV1.sol:MoonSwap",
        "label": "activeSwaps",
        "offset": 0,
        "slot": "2",
        "type": "t_struct(UintSet)1774_storage"
      },
      {
        "astId": 1975,
        "contract": "contracts/MoonSwapV1.sol:MoonSwap",
        "label": "swaps",
        "offset": 0,
        "slot": "4",
        "type": "t_mapping(t_uint256,t_struct(Swap)1964_storage)"
      },
      {
        "astId": 1979,
        "contract": "contracts/MoonSwapV1.sol:MoonSwap",
        "label": "claimableFees",
        "offset": 0,
        "slot": "5",
        "type": "t_mapping(t_address,t_uint256)"
      },
      {
        "astId": 1981,
        "contract": "contracts/MoonSwapV1.sol:MoonSwap",
        "label": "admin",
        "offset": 0,
        "slot": "6",
        "type": "t_address"
      }
    ],
    "types": {
      "t_address": {
        "encoding": "inplace",
        "label": "address",
        "numberOfBytes": "20"
      },
      "t_array(t_bytes32)dyn_storage": {
        "base": "t_bytes32",
        "encoding": "dynamic_array",
        "label": "bytes32[]",
        "numberOfBytes": "32"
      },
      "t_bool": {
        "encoding": "inplace",
        "label": "bool",
        "numberOfBytes": "1"
      },
      "t_bytes32": {
        "encoding": "inplace",
        "label": "bytes32",
        "numberOfBytes": "32"
      },
      "t_contract(IERC20)663": {
        "encoding": "inplace",
        "label": "contract IERC20",
        "numberOfBytes": "20"
      },
      "t_mapping(t_address,t_uint256)": {
        "encoding": "mapping",
        "key": "t_address",
        "label": "mapping(address => uint256)",
        "numberOfBytes": "32",
        "value": "t_uint256"
      },
      "t_mapping(t_bytes32,t_uint256)": {
        "encoding": "mapping",
        "key": "t_bytes32",
        "label": "mapping(bytes32 => uint256)",
        "numberOfBytes": "32",
        "value": "t_uint256"
      },
      "t_mapping(t_uint256,t_struct(Swap)1964_storage)": {
        "encoding": "mapping",
        "key": "t_uint256",
        "label": "mapping(uint256 => struct MoonSwap.Swap)",
        "numberOfBytes": "32",
        "value": "t_struct(Swap)1964_storage"
      },
      "t_struct(Counter)1237_storage": {
        "encoding": "inplace",
        "label": "struct Counters.Counter",
        "members": [
          {
            "astId": 1236,
            "contract": "contracts/MoonSwapV1.sol:MoonSwap",
            "label": "_value",
            "offset": 0,
            "slot": "0",
            "type": "t_uint256"
          }
        ],
        "numberOfBytes": "32"
      },
      "t_struct(Set)1316_storage": {
        "encoding": "inplace",
        "label": "struct EnumerableSet.Set",
        "members": [
          {
            "astId": 1311,
            "contract": "contracts/MoonSwapV1.sol:MoonSwap",
            "label": "_values",
            "offset": 0,
            "slot": "0",
            "type": "t_array(t_bytes32)dyn_storage"
          },
          {
            "astId": 1315,
            "contract": "contracts/MoonSwapV1.sol:MoonSwap",
            "label": "_indexes",
            "offset": 0,
            "slot": "1",
            "type": "t_mapping(t_bytes32,t_uint256)"
          }
        ],
        "numberOfBytes": "64"
      },
      "t_struct(Swap)1964_storage": {
        "encoding": "inplace",
        "label": "struct MoonSwap.Swap",
        "members": [
          {
            "astId": 1950,
            "contract": "contracts/MoonSwapV1.sol:MoonSwap",
            "label": "inToken",
            "offset": 0,
            "slot": "0",
            "type": "t_contract(IERC20)663"
          },
          {
            "astId": 1953,
            "contract": "contracts/MoonSwapV1.sol:MoonSwap",
            "label": "outToken",
            "offset": 0,
            "slot": "1",
            "type": "t_contract(IERC20)663"
          },
          {
            "astId": 1955,
            "contract": "contracts/MoonSwapV1.sol:MoonSwap",
            "label": "tokensIn",
            "offset": 0,
            "slot": "2",
            "type": "t_uint256"
          },
          {
            "astId": 1957,
            "contract": "contracts/MoonSwapV1.sol:MoonSwap",
            "label": "tokensOut",
            "offset": 0,
            "slot": "3",
            "type": "t_uint256"
          },
          {
            "astId": 1959,
            "contract": "contracts/MoonSwapV1.sol:MoonSwap",
            "label": "inTokenParty",
            "offset": 0,
            "slot": "4",
            "type": "t_address"
          },
          {
            "astId": 1961,
            "contract": "contracts/MoonSwapV1.sol:MoonSwap",
            "label": "outTokenParty",
            "offset": 0,
            "slot": "5",
            "type": "t_address"
          },
          {
            "astId": 1963,
            "contract": "contracts/MoonSwapV1.sol:MoonSwap",
            "label": "status",
            "offset": 20,
            "slot": "5",
            "type": "t_bool"
          }
        ],
        "numberOfBytes": "192"
      },
      "t_struct(UintSet)1774_storage": {
        "encoding": "inplace",
        "label": "struct EnumerableSet.UintSet",
        "members": [
          {
            "astId": 1773,
            "contract": "contracts/MoonSwapV1.sol:MoonSwap",
            "label": "_inner",
            "offset": 0,
            "slot": "0",
            "type": "t_struct(Set)1316_storage"
          }
        ],
        "numberOfBytes": "64"
      },
      "t_uint256": {
        "encoding": "inplace",
        "label": "uint256",
        "numberOfBytes": "32"
      }
    }
  }
}