{
  "address": "0x9fE46736679d2D9a65F0992F2272dE9f3c7fa6e0",
  "abi": [
    {
      "inputs": [],
      "stateMutability": "nonpayable",
      "type": "constructor"
    },
    {
      "inputs": [],
      "name": "admin",
      "outputs": [
        {
          "internalType": "address",
          "name": "",
          "type": "address"
        }
      ],
      "stateMutability": "view",
      "type": "function"
    },
    {
      "inputs": [
        {
          "internalType": "contract IERC20",
          "name": "_token",
          "type": "address"
        }
      ],
      "name": "claimFees",
      "outputs": [],
      "stateMutability": "nonpayable",
      "type": "function"
    },
    {
      "inputs": [
        {
          "internalType": "address",
          "name": "",
          "type": "address"
        }
      ],
      "name": "claimableFees",
      "outputs": [
        {
          "internalType": "uint256",
          "name": "",
          "type": "uint256"
        }
      ],
      "stateMutability": "view",
      "type": "function"
    },
    {
      "inputs": [
        {
          "internalType": "uint256",
          "name": "_swapId",
          "type": "uint256"
        },
        {
          "internalType": "uint256",
          "name": "_outTokens",
          "type": "uint256"
        }
      ],
      "name": "commitToSwap",
      "outputs": [
        {
          "internalType": "uint256",
          "name": "",
          "type": "uint256"
        }
      ],
      "stateMutability": "nonpayable",
      "type": "function"
    },
    {
      "inputs": [
        {
          "internalType": "contract IERC20",
          "name": "_inToken",
          "type": "address"
        },
        {
          "internalType": "contract IERC20",
          "name": "_outToken",
          "type": "address"
        },
        {
          "internalType": "uint256",
          "name": "_inTokens",
          "type": "uint256"
        },
        {
          "internalType": "uint256",
          "name": "_outTokens",
          "type": "uint256"
        },
        {
          "internalType": "address",
          "name": "_tokenOutParty",
          "type": "address"
        }
      ],
      "name": "createNewSwap",
      "outputs": [
        {
          "internalType": "uint256",
          "name": "",
          "type": "uint256"
        }
      ],
      "stateMutability": "nonpayable",
      "type": "function"
    },
    {
      "inputs": [],
      "name": "swapId",
      "outputs": [
        {
          "internalType": "uint256",
          "name": "_value",
          "type": "uint256"
        }
      ],
      "stateMutability": "view",
      "type": "function"
    },
    {
      "inputs": [
        {
          "internalType": "uint256",
          "name": "",
          "type": "uint256"
        }
      ],
      "name": "swaps",
      "outputs": [
        {
          "internalType": "contract IERC20",
          "name": "inToken",
          "type": "address"
        },
        {
          "internalType": "contract IERC20",
          "name": "outToken",
          "type": "address"
        },
        {
          "internalType": "uint256",
          "name": "tokensIn",
          "type": "uint256"
        },
        {
          "internalType": "uint256",
          "name": "tokensOut",
          "type": "uint256"
        },
        {
          "internalType": "address",
          "name": "inTokenParty",
          "type": "address"
        },
        {
          "internalType": "address",
          "name": "outTokenParty",
          "type": "address"
        },
        {
          "internalType": "bool",
          "name": "status",
          "type": "bool"
        }
      ],
      "stateMutability": "view",
      "type": "function"
    }
  ],
  "transactionHash": "0xd41ad661efee84dbc0c969433a16b8b75b567b2d8ebcea8af4ec5e2a941992ab",
  "args": [],
  "solcInputHash": "d8fe67688f589510b00df917ddc6ed4f",
  "bytecode": "0x608060405234801561001057600080fd5b506001600055600480546001600160a01b03191633179055610f62806100376000396000f3fe608060405234801561001057600080fd5b506004361061007d5760003560e01c8063b82491f11161005b578063b82491f1146100dd578063f09c5829146100f0578063f54738ef146101c1578063f851a440146101cb57600080fd5b806315a0ea6a146100825780635ec169a0146100975780637e0b2492146100bd575b600080fd5b610095610090366004610ce4565b610210565b005b6100aa6100a5366004610d01565b61024c565b6040519081526020015b60405180910390f35b6100aa6100cb366004610ce4565b60036020526000908152604090205481565b6100aa6100eb366004610d23565b610664565b61016e6100fe366004610d82565b600260208190526000918252604090912080546001820154928201546003830154600484015460059094015473ffffffffffffffffffffffffffffffffffffffff938416958416949293919282169181169074010000000000000000000000000000000000000000900460ff1687565b6040805173ffffffffffffffffffffffffffffffffffffffff9889168152968816602088015286019490945260608501929092528416608084015290921660a082015290151560c082015260e0016100b4565b6001546100aa9081565b6004546101eb9073ffffffffffffffffffffffffffffffffffffffff1681565b60405173ffffffffffffffffffffffffffffffffffffffff90911681526020016100b4565b60045473ffffffffffffffffffffffffffffffffffffffff8281166000818152600360205260409020546102499391929091169061088d565b50565b6000600260005414156102c0576040517f08c379a000000000000000000000000000000000000000000000000000000000815260206004820152601f60248201527f5265656e7472616e637947756172643a207265656e7472616e742063616c6c0060448201526064015b60405180910390fd5b600260008181558481526020828152604091829020825160e081018452815473ffffffffffffffffffffffffffffffffffffffff9081168252600183015481169382019390935293810154928401929092526003820154606084015260048201548116608084015260059091015490811660a083015274010000000000000000000000000000000000000000900460ff16151560c082018190526103c0576040517f08c379a000000000000000000000000000000000000000000000000000000000815260206004820152600d60248201527f535741505f494e4143544956450000000000000000000000000000000000000060448201526064016102b7565b60a081015173ffffffffffffffffffffffffffffffffffffffff16331480610400575060a081015173ffffffffffffffffffffffffffffffffffffffff16155b610466576040517f08c379a000000000000000000000000000000000000000000000000000000000815260206004820152600c60248201527f554e415554484f52495a4544000000000000000000000000000000000000000060448201526064016102b7565b80606001518310156104d4576040517f08c379a000000000000000000000000000000000000000000000000000000000815260206004820152601060248201527f554e4d4154434845445f414d4f554e540000000000000000000000000000000060448201526064016102b7565b60208101516104fb9073ffffffffffffffffffffffffffffffffffffffff16333086610966565b60006103e861050b856005610dca565b6105159190610e07565b90508060036000846020015173ffffffffffffffffffffffffffffffffffffffff1673ffffffffffffffffffffffffffffffffffffffff168152602001908152602001600020600082825461056a9190610e42565b90915550506000858152600260208190526040822080547fffffffffffffffffffffffff00000000000000000000000000000000000000009081168255600182018054821690559181018390556003810192909255600482018054909116905560050180547fffffffffffffffffffffff0000000000000000000000000000000000000000001690556080820151610628906106068387610e5a565b602085015173ffffffffffffffffffffffffffffffffffffffff16919061088d565b604082015182516106539173ffffffffffffffffffffffffffffffffffffffff90911690339061088d565b506040015160016000559392505050565b600061068873ffffffffffffffffffffffffffffffffffffffff8716333087610966565b60006103e8610698866005610dca565b6106a29190610e07565b73ffffffffffffffffffffffffffffffffffffffff88166000908152600360205260408120805492935083929091906106dc908490610e42565b90915550506040805160e08101825273ffffffffffffffffffffffffffffffffffffffff808a16825288166020820152600091810161071b8489610e5a565b81526020018681526020013373ffffffffffffffffffffffffffffffffffffffff1681526020018573ffffffffffffffffffffffffffffffffffffffff168152602001600015158152509050806002600061077560015490565b815260208082019290925260409081016000208351815473ffffffffffffffffffffffffffffffffffffffff9182167fffffffffffffffffffffffff0000000000000000000000000000000000000000918216178355938501516001808401805492841692871692909217909155928501516002830155606085015160038301556080850151600483018054918316919095161790935560a08401516005909101805460c090950151151574010000000000000000000000000000000000000000027fffffffffffffffffffffff00000000000000000000000000000000000000000090951691909316179290921790556108739080546001019055565b600180546108819190610e5a565b98975050505050505050565b60405173ffffffffffffffffffffffffffffffffffffffff83166024820152604481018290526109619084907fa9059cbb00000000000000000000000000000000000000000000000000000000906064015b604080517fffffffffffffffffffffffffffffffffffffffffffffffffffffffffffffffe08184030181529190526020810180517bffffffffffffffffffffffffffffffffffffffffffffffffffffffff167fffffffff00000000000000000000000000000000000000000000000000000000909316929092179091526109ca565b505050565b60405173ffffffffffffffffffffffffffffffffffffffff808516602483015283166044820152606481018290526109c49085907f23b872dd00000000000000000000000000000000000000000000000000000000906084016108df565b50505050565b6000610a2c826040518060400160405280602081526020017f5361666545524332303a206c6f772d6c6576656c2063616c6c206661696c65648152508573ffffffffffffffffffffffffffffffffffffffff16610ad69092919063ffffffff16565b8051909150156109615780806020019051810190610a4a9190610e71565b610961576040517f08c379a000000000000000000000000000000000000000000000000000000000815260206004820152602a60248201527f5361666545524332303a204552433230206f7065726174696f6e20646964206e60448201527f6f7420737563636565640000000000000000000000000000000000000000000060648201526084016102b7565b6060610ae58484600085610aef565b90505b9392505050565b606082471015610b81576040517f08c379a000000000000000000000000000000000000000000000000000000000815260206004820152602660248201527f416464726573733a20696e73756666696369656e742062616c616e636520666f60448201527f722063616c6c000000000000000000000000000000000000000000000000000060648201526084016102b7565b843b610be9576040517f08c379a000000000000000000000000000000000000000000000000000000000815260206004820152601d60248201527f416464726573733a2063616c6c20746f206e6f6e2d636f6e747261637400000060448201526064016102b7565b6000808673ffffffffffffffffffffffffffffffffffffffff168587604051610c129190610ebf565b60006040518083038185875af1925050503d8060008114610c4f576040519150601f19603f3d011682016040523d82523d6000602084013e610c54565b606091505b5091509150610c64828286610c6f565b979650505050505050565b60608315610c7e575081610ae8565b825115610c8e5782518084602001fd5b816040517f08c379a00000000000000000000000000000000000000000000000000000000081526004016102b79190610edb565b73ffffffffffffffffffffffffffffffffffffffff8116811461024957600080fd5b600060208284031215610cf657600080fd5b8135610ae881610cc2565b60008060408385031215610d1457600080fd5b50508035926020909101359150565b600080600080600060a08688031215610d3b57600080fd5b8535610d4681610cc2565b94506020860135610d5681610cc2565b935060408601359250606086013591506080860135610d7481610cc2565b809150509295509295909350565b600060208284031215610d9457600080fd5b5035919050565b7f4e487b7100000000000000000000000000000000000000000000000000000000600052601160045260246000fd5b6000817fffffffffffffffffffffffffffffffffffffffffffffffffffffffffffffffff0483118215151615610e0257610e02610d9b565b500290565b600082610e3d577f4e487b7100000000000000000000000000000000000000000000000000000000600052601260045260246000fd5b500490565b60008219821115610e5557610e55610d9b565b500190565b600082821015610e6c57610e6c610d9b565b500390565b600060208284031215610e8357600080fd5b81518015158114610ae857600080fd5b60005b83811015610eae578181015183820152602001610e96565b838111156109c45750506000910152565b60008251610ed1818460208701610e93565b9190910192915050565b6020815260008251806020840152610efa816040850160208701610e93565b601f017fffffffffffffffffffffffffffffffffffffffffffffffffffffffffffffffe016919091016040019291505056fea2646970667358221220c2e3952c1a9228486d72e606f920c118f9aa5f870e6215a3878fc2ddd047863a64736f6c63430008090033",
  "devdoc": {
    "kind": "dev",
    "methods": {},
    "version": 1
  },
  "userdoc": {
    "kind": "user",
    "methods": {},
    "version": 1
  },
  "storageLayout": {
    "storage": [
      {
        "astId": 10,
        "contract": "contracts/MoonSwapV1.sol:MoonSwap",
        "label": "_status",
        "offset": 0,
        "slot": "0",
        "type": "t_uint256"
      },
      {
        "astId": 748,
        "contract": "contracts/MoonSwapV1.sol:MoonSwap",
        "label": "swapId",
        "offset": 0,
        "slot": "1",
        "type": "t_struct(Counter)644_storage"
      },
      {
        "astId": 753,
        "contract": "contracts/MoonSwapV1.sol:MoonSwap",
        "label": "swaps",
        "offset": 0,
        "slot": "2",
        "type": "t_mapping(t_uint256,t_struct(Swap)745_storage)"
      },
      {
        "astId": 757,
        "contract": "contracts/MoonSwapV1.sol:MoonSwap",
        "label": "claimableFees",
        "offset": 0,
        "slot": "3",
        "type": "t_mapping(t_address,t_uint256)"
      },
      {
        "astId": 759,
        "contract": "contracts/MoonSwapV1.sol:MoonSwap",
        "label": "admin",
        "offset": 0,
        "slot": "4",
        "type": "t_address"
      }
    ],
    "types": {
      "t_address": {
        "encoding": "inplace",
        "label": "address",
        "numberOfBytes": "20"
      },
      "t_bool": {
        "encoding": "inplace",
        "label": "bool",
        "numberOfBytes": "1"
      },
      "t_contract(IERC20)117": {
        "encoding": "inplace",
        "label": "contract IERC20",
        "numberOfBytes": "20"
      },
      "t_mapping(t_address,t_uint256)": {
        "encoding": "mapping",
        "key": "t_address",
        "label": "mapping(address => uint256)",
        "numberOfBytes": "32",
        "value": "t_uint256"
      },
      "t_mapping(t_uint256,t_struct(Swap)745_storage)": {
        "encoding": "mapping",
        "key": "t_uint256",
        "label": "mapping(uint256 => struct MoonSwap.Swap)",
        "numberOfBytes": "32",
        "value": "t_struct(Swap)745_storage"
      },
      "t_struct(Counter)644_storage": {
        "encoding": "inplace",
        "label": "struct Counters.Counter",
        "members": [
          {
            "astId": 643,
            "contract": "contracts/MoonSwapV1.sol:MoonSwap",
            "label": "_value",
            "offset": 0,
            "slot": "0",
            "type": "t_uint256"
          }
        ],
        "numberOfBytes": "32"
      },
      "t_struct(Swap)745_storage": {
        "encoding": "inplace",
        "label": "struct MoonSwap.Swap",
        "members": [
          {
            "astId": 731,
            "contract": "contracts/MoonSwapV1.sol:MoonSwap",
            "label": "inToken",
            "offset": 0,
            "slot": "0",
            "type": "t_contract(IERC20)117"
          },
          {
            "astId": 734,
            "contract": "contracts/MoonSwapV1.sol:MoonSwap",
            "label": "outToken",
            "offset": 0,
            "slot": "1",
            "type": "t_contract(IERC20)117"
          },
          {
            "astId": 736,
            "contract": "contracts/MoonSwapV1.sol:MoonSwap",
            "label": "tokensIn",
            "offset": 0,
            "slot": "2",
            "type": "t_uint256"
          },
          {
            "astId": 738,
            "contract": "contracts/MoonSwapV1.sol:MoonSwap",
            "label": "tokensOut",
            "offset": 0,
            "slot": "3",
            "type": "t_uint256"
          },
          {
            "astId": 740,
            "contract": "contracts/MoonSwapV1.sol:MoonSwap",
            "label": "inTokenParty",
            "offset": 0,
            "slot": "4",
            "type": "t_address"
          },
          {
            "astId": 742,
            "contract": "contracts/MoonSwapV1.sol:MoonSwap",
            "label": "outTokenParty",
            "offset": 0,
            "slot": "5",
            "type": "t_address"
          },
          {
            "astId": 744,
            "contract": "contracts/MoonSwapV1.sol:MoonSwap",
            "label": "status",
            "offset": 20,
            "slot": "5",
            "type": "t_bool"
          }
        ],
        "numberOfBytes": "192"
      },
      "t_uint256": {
        "encoding": "inplace",
        "label": "uint256",
        "numberOfBytes": "32"
      }
    }
  }
}